{
  "contractName": "XFAVesting",
  "abi": [
    {
      "inputs": [
        {
          "internalType": "address",
          "name": "_token",
          "type": "address"
        },
        {
          "internalType": "uint256",
          "name": "_listingDate",
          "type": "uint256"
        }
      ],
      "stateMutability": "nonpayable",
      "type": "constructor"
    },
    {
      "anonymous": false,
      "inputs": [],
      "name": "onEmergencyWithdraw",
      "type": "event"
    },
    {
      "anonymous": false,
      "inputs": [
        {
          "indexed": false,
          "internalType": "address",
          "name": "_user",
          "type": "address"
        },
        {
          "indexed": false,
          "internalType": "uint256",
          "name": "_maxTokensUnlocked",
          "type": "uint256"
        }
      ],
      "name": "onUnlockNewTokens",
      "type": "event"
    },
    {
      "inputs": [],
      "name": "unlockTokens",
      "outputs": [],
      "stateMutability": "nonpayable",
      "type": "function"
    },
    {
      "inputs": [],
      "name": "getTokensInVesting",
      "outputs": [
        {
          "internalType": "uint256",
          "name": "",
          "type": "uint256"
        }
      ],
      "stateMutability": "view",
      "type": "function"
    },
    {
      "inputs": [],
      "name": "emegercyWithdraw",
      "outputs": [],
      "stateMutability": "nonpayable",
      "type": "function"
    }
  ],
  "bytecode": "0x60e060405234801561001057600080fd5b50604051610ad6380380610ad683398101604081905261002f91610049565b6001600160a01b0390911660a05260c05233608052610083565b6000806040838503121561005c57600080fd5b82516001600160a01b038116811461007357600080fd5b6020939093015192949293505050565b60805160a05160c0516109f56100e1600039600081816102df0152818161034001526103af01526000818160f3015281816101af015281816102630152610885015260008181607d0152818161017d015261085601526109f56000f3fe608060405234801561001057600080fd5b50600436106100415760003560e01c8063cacee03b14610046578063d642dfd614610050578063f968f4931461006a575b600080fd5b61004e610072565b005b61005861024b565b60405190815260200160405180910390f35b61004e6102db565b336001600160a01b037f000000000000000000000000000000000000000000000000000000000000000016146100db5760405162461bcd60e51b815260206004820152600960248201526827b7363ca7bbb732b960b91b60448201526064015b60405180910390fd5b6040516370a0823160e01b81523060048201526000907f00000000000000000000000000000000000000000000000000000000000000006001600160a01b0316906370a0823190602401602060405180830381865afa158015610142573d6000803e3d6000fd5b505050506040513d601f19601f820116820180604052508101906101669190610938565b60405163a9059cbb60e01b81526001600160a01b037f000000000000000000000000000000000000000000000000000000000000000081166004830152602482018390529192507f00000000000000000000000000000000000000000000000000000000000000009091169063a9059cbb906044016020604051808303816000875af11580156101fa573d6000803e3d6000fd5b505050506040513d601f19601f8201168201806040525081019061021e9190610951565b506040517ffc556f04259a78324cc37c7e2308bd9a2b5c4d5e7cba0a524f9c9b8b8dad5f7c90600090a150565b6040516370a0823160e01b81523060048201526000907f00000000000000000000000000000000000000000000000000000000000000006001600160a01b0316906370a0823190602401602060405180830381865afa1580156102b2573d6000803e3d6000fd5b505050506040513d601f19601f820116820180604052508101906102d69190610938565b905090565b60007f00000000000000000000000000000000000000000000000000000000000000001161033b5760405162461bcd60e51b815260206004820152600d60248201526c4e6f4c697374696e674461746560981b60448201526064016100d2565b6103697f00000000000000000000000000000000000000000000000000000000000000006301da9c00610990565b4210156103a75760405162461bcd60e51b815260206004820152600c60248201526b4e6f74417661696c61626c6560a01b60448201526064016100d2565b6000806103d87f00000000000000000000000000000000000000000000000000000000000000006301da9c00610990565b90508042101580156103f557506103f2816276a700610990565b42105b1561040d576a0f8277896582678ac0000091506107d7565b61041a816276a700610990565b421015801561043457506104318162ed4e00610990565b42105b1561044c576a1f04ef12cb04cf1580000091506107d7565b6104598162ed4e00610990565b4210158015610474575061047181630163f500610990565b42105b1561048c576a2e87669c308736a040000091506107d7565b61049a81630163f500610990565b42101580156104b557506104b2816301da9c00610990565b42105b156104cd576a3e09de2596099e2b00000091506107d7565b6104db816301da9c00610990565b42101580156104f657506104f3816302514300610990565b42105b1561050e576a4c83a30c390bdcac80000091506107d7565b61051c816302514300610990565b42101580156105375750610534816302c7ea00610990565b42105b1561054f576a5afd67f2dc0e1b2e00000091506107d7565b61055d816302c7ea00610990565b421015801561057857506105758163033e9100610990565b42105b15610590576a69772cd97f1059af80000091506107d7565b61059e8163033e9100610990565b42101580156105b957506105b6816303b53800610990565b42105b156105d1576a77f0f1c02212983100000091506107d7565b6105df816303b53800610990565b42101580156105fa57506105f78163042bdf00610990565b42105b15610612576a8c9ee6775415ccea00000091506107d7565b6106208163042bdf00610990565b421015801561063b5750610638816304a28600610990565b42105b15610653576aa14cdb2e861901a300000091506107d7565b610661816304a28600610990565b421015801561067c5750610679816305192d00610990565b42105b15610694576ab5facfe5b81c365c00000091506107d7565b6106a2816305192d00610990565b42101580156106bd57506106ba8163058fd400610990565b42105b156106d5576acaa8c49cea1f6b1500000091506107d7565b6106e38163058fd400610990565b42101580156106fe57506106fb816306067b00610990565b42105b15610716576adf56b9541c229fce00000091506107d7565b610724816306067b00610990565b421015801561073f575061073c8163067d2200610990565b42105b15610757576af404ae0b4e25d48700000091506107d7565b6107658163067d2200610990565b4210158015610780575061077d816306f3c900610990565b42105b15610799576b0108b2a2c28029094000000091506107d7565b6107a7816306f3c900610990565b42101580156107c257506107bf8163076a7000610990565b42105b156107d7576b011d609779b22c3df900000091505b6000546107e490836109a8565b9150600082116108295760405162461bcd60e51b815260206004820152601060248201526f4e6f546f6b656e73546f556e6c6f636b60801b60448201526064016100d2565b8160008082825461083a9190610990565b909155505060405163a9059cbb60e01b81526001600160a01b037f000000000000000000000000000000000000000000000000000000000000000081166004830152602482018490527f0000000000000000000000000000000000000000000000000000000000000000169063a9059cbb906044016020604051808303816000875af11580156108ce573d6000803e3d6000fd5b505050506040513d601f19601f820116820180604052508101906108f29190610951565b6108fb57600080fd5b60408051338152602081018490527f6ae370199bbacdc4b9aa974f08689b36735ff8a9b4fb710eb991893778343edb910160405180910390a15050565b60006020828403121561094a57600080fd5b5051919050565b60006020828403121561096357600080fd5b8151801515811461097357600080fd5b9392505050565b634e487b7160e01b600052601160045260246000fd5b600082198211156109a3576109a361097a565b500190565b6000828210156109ba576109ba61097a565b50039056fea264697066735822122095aeaf71d2b1a2445720a4e3a63dcddd6d70b5a6717530d882b142a583c2459a64736f6c634300080b0033",
  "immutableReferences": {
    "1383": [
      {
        "length": 32,
        "start": 125
      },
      {
        "length": 32,
        "start": 381
      },
      {
        "length": 32,
        "start": 2134
      }
    ],
    "1385": [
      {
        "length": 32,
        "start": 243
      },
      {
        "length": 32,
        "start": 431
      },
      {
        "length": 32,
        "start": 611
      },
      {
        "length": 32,
        "start": 2181
      }
    ],
    "1387": [
      {
        "length": 32,
        "start": 735
      },
      {
        "length": 32,
        "start": 832
      },
      {
        "length": 32,
        "start": 943
      }
    ]
  },
  "source": "// SPDX-License-Identifier: MIT\npragma solidity ^0.8.7;\n\nimport \"@openzeppelin/contracts/token/ERC20/IERC20.sol\";\n\ncontract XFAVesting {\n    address immutable private wallet;\n    address immutable private token;\n    uint256 immutable private tokenListingDate;\n    uint256 private tokensWithdrawn;\n   \n    event onUnlockNewTokens(address _user, uint256 _maxTokensUnlocked);\n    event onEmergencyWithdraw();\n\n    constructor(address _token, uint256 _listingDate) {\n        token = _token;\n        tokenListingDate = _listingDate;\n        wallet = msg.sender;\n    }\n\n    function unlockTokens() external {\n        require(tokenListingDate > 0, \"NoListingDate\");\n        require(block.timestamp >= tokenListingDate + 360 days, \"NotAvailable\");\n\n        uint256 maxTokensAllowed = 0;\n        uint256 initTime = tokenListingDate + 360 days;\n        if ((block.timestamp >= initTime) && (block.timestamp < initTime + 90 days)) {\n            maxTokensAllowed = 18750000 * 10 ** 18;\n        } else if ((block.timestamp >= initTime + 90 days) && (block.timestamp < initTime + 180 days)) {\n            maxTokensAllowed = 37500000 * 10 ** 18;\n        } else if ((block.timestamp >= initTime + 180 days) && (block.timestamp < initTime + 270 days)) {\n            maxTokensAllowed = 56250000 * 10 ** 18;\n        } else if ((block.timestamp >= initTime + 270 days) && (block.timestamp < initTime + 360 days)) {\n            maxTokensAllowed = 75000000 * 10 ** 18;\n        } else if ((block.timestamp >= initTime + 360 days) && (block.timestamp < initTime + 450 days)) {\n            maxTokensAllowed = 92500000 * 10 ** 18;\n        } else if ((block.timestamp >= initTime + 450 days) && (block.timestamp < initTime + 540 days)) {\n            maxTokensAllowed = 110000000 * 10 ** 18;\n        } else if ((block.timestamp >= initTime + 540 days) && (block.timestamp < initTime + 630 days)) {\n            maxTokensAllowed = 127500000 * 10 ** 18;\n        } else if ((block.timestamp >= initTime + 630 days) && (block.timestamp < initTime + 720 days)) {\n            maxTokensAllowed = 145000000 * 10 ** 18;\n        } else if ((block.timestamp >= initTime + 720 days) && (block.timestamp < initTime + 810 days)) {\n            maxTokensAllowed = 170000000 * 10 ** 18;\n        } else if ((block.timestamp >= initTime + 810 days) && (block.timestamp < initTime + 900 days)) {\n            maxTokensAllowed = 195000000 * 10 ** 18;\n        } else if ((block.timestamp >= initTime + 900 days) && (block.timestamp < initTime + 990 days)) {\n            maxTokensAllowed = 220000000 * 10 ** 18;\n        } else if ((block.timestamp >= initTime + 990 days) && (block.timestamp < initTime + 1080 days)) {\n            maxTokensAllowed = 245000000 * 10 ** 18;\n        } else if ((block.timestamp >= initTime + 1080 days) && (block.timestamp < initTime + 1170 days)) {\n            maxTokensAllowed = 270000000 * 10 ** 18;\n        } else if ((block.timestamp >= initTime + 1170 days) && (block.timestamp < initTime + 1260 days)) {\n            maxTokensAllowed = 295000000 * 10 ** 18;\n        } else if ((block.timestamp >= initTime + 1260 days) && (block.timestamp < initTime + 1350 days)) {\n            maxTokensAllowed = 320000000 * 10 ** 18;\n        } else if ((block.timestamp >= initTime + 1350 days) && (block.timestamp < initTime + 1440 days)) {\n            maxTokensAllowed = 345000000 * 10 ** 18;\n        }\n\n        maxTokensAllowed -= tokensWithdrawn;\n        require(maxTokensAllowed > 0, \"NoTokensToUnlock\");\n\n        tokensWithdrawn += maxTokensAllowed;\n        require(IERC20(token).transfer(wallet, maxTokensAllowed));\n\n        emit onUnlockNewTokens(msg.sender, maxTokensAllowed);\n    }\n\n    function getTokensInVesting() external view returns(uint256) {\n        return IERC20(token).balanceOf(address(this));\n    }\n\n    function emegercyWithdraw() external {\n        require(msg.sender == wallet, \"OnlyOwner\");\n\n        uint256 balance = IERC20(token).balanceOf(address(this));\n        IERC20(token).transfer(wallet, balance);\n\n        emit onEmergencyWithdraw();\n    }\n}",
  "sourcePath": "/Users/salvadorcarreon/Dropbox/Mac/Downloads/xfa-master/smartcontracts/contracts/vesting/XFAVesting.sol",
  "compiler": {
    "name": "solc",
    "version": "0.8.11+commit.d7f03943.Emscripten.clang"
  },
  "schemaVersion": "3.4.3",
  "updatedAt": "2022-02-23T16:16:09.637Z",
  "devdoc": {
    "kind": "dev",
    "methods": {},
    "version": 1
  },
  "userdoc": {
    "kind": "user",
    "methods": {},
    "version": 1
  }
}